:020000040800F2
:10000000F0FF01205DBF0508C5BF05084DAF010821
:10001000C5BF0508C5BF0508C5BF0508000000002D
:10002000000000000000000000000000C5BF05083F
:10003000C5BF050800000000C5BF0508F96F01082D
:10004000C5BF0508C5BF0508C5BF0508C5BF05086C
:10005000C5BF0508C5BF0508B5880008BD880008EC
:10006000C5880008CD880008D58800088D8600085E
:10007000A1860008B5860008C9860008DD8600084C
:10008000F186000805870008C5BF0508C5BF05083B
:10009000C52B0508C5BF0508C5BF0508DD880008D4
:1000A000E9A50008EDA40008F9A50008DDA40008F2
:1000B00015A5000825A5000835A50008A18300089E
:1000C00095830008D5830008C9830008C5BF0508CB
:1000D000C5BF0508516F01085D6F0108696F010810
:1000E000E5880008C5BF0508C5BF0508C5BF0508E8
:1000F000D9A50008C5BF0508C9A50008C5BF0508E2
:10010000C5BF0508C5BF050845A50008C5BF05084A
:10011000756F0108816F010855A50008F9270508CA
:100120002D87000841870008558700086987000867
:100130007D870008C5BF0508C5BF0508C5BF050800
:10014000C5BF0508C5BF0508C5BF0508C5BF05086B
:10015000C5BF0508C5BF0508C5BF0508C5BF05085B
:10016000C5BF0508C5BF0508C5BF0508C5BF05084B
:10017000C5BF0508C5BF0508C5BF0508C5BF05083B
:1001800009A60008C5BF05083D84000831840008A1
:10019000C5BF050800000000C5BF0508C5BF0508AC
:1001A000C5BF0508C5BF0508C5BF05088D6F010897
:1001B00009840008FD830008C5BF0508C5BF050800
:1001C0001987000891870008A5870008B9870008EB
:0801D000C5BF0508C5BF050805
:0801D800B0BA050001000000AF
:10600000074BD0F8C4105B68D0F8D0205B1A9A42D6
:10601000B8BFC0F8D030012380F8FC3000207047B2
:10602000001000E04368C26C10B49A61EFF3118273
:10603000502383F312884168046C0B6823EA04033D
:10604000846C2343D2B20B6082F311884369816868
:106050001A68096822F001021A60D0E908421C603F
:106060005A60D0E90A429C60DA60B0F86420CA62E3
:1060700000235DF8044B0377704700BF30B5EAB1E9
:106080008E464FEA014C034600F1C0050024196812
:106090009A6841EA0C0142EA0E029A60C3E90014D0
:1060A0000C33AB42F3D1D0F8C030C0F8C44043EA5F
:1060B0000E03C0F8C030C0F8C84030BD4FEA014EF2
:1060C0008C46E0E783695969B3F810C00A6830B4B8
:1060D0009C6822F0010224680A60E26822EA0C024D
:1060E000E260046890F814C02068082202FA0CF2FA
:1060F00002403AD123480578022000FA0CF0606093
:10610000002D30D0187F012830D0D3F8D8200132AC
:10611000C3F8D820EFF31181502282F31288586817
:106120001C6C026822EA04025C6C2243C9B2026061
:1061300081F31188D3E90C405A69996809681460A1
:106140005060D3E90E409460D060B3F89C00C86200
:1061500010680124204310601C7783F8D540CA687A
:106160001B8A1343CB6030BC7047FEE783F8D52011
:10617000D3F8DC000A68013022F00102C3F8DC0029
:106180000A60F0E7801C002010B40C4C6368002B00
:1061900011DD002004F1080C0146DCF8943003F115
:1061A000C00259600C339342FBD1636801308342D3
:1061B0000CF1E40CF1DC5DF8044B7047801C00200E
:1061C000704700BF024B03EB401090F8B5037047D7
:1061D000801C0020704700BF0B4890F8CC1489B198
:1061E00001EB4101002310B4490000F2D4401C46E9
:1061F00050F82320063302B114608B42F8D15DF8C9
:10620000044B7047704700BF801C00200B4890F87B
:10621000CC1489B101EB4101002310B4490000F214
:10622000D4401C4650F82320063302B11460994232
:10623000F8D15DF8044B7047704700BF801C002008
:1062400001207047034B00EB400003EBC00090F8C7
:10625000E5047047801C00201F4890F8CC34CBB375
:1062600000222DE9F04300F2D4431C4F50262C2588
:10627000144607E053F8181B0C6090F8CC14013258
:10628000914225DD197C0029F4D059684FEA912EFE
:10629000AEF5801EBEF1540F4FF0FE0C98BF17F8FC
:1062A0000EC0EFF3118E86F31288D1F82490D1F846
:1062B000148005FB0C0C09F1010948F00108CCF829
:1062C000BC955FFA8EFCC1F814808CF31188D1E77D
:1062D000BDE8F083704700BF801C00209CDA0508F1
:1062E00007EE900AB8EE670A704700BFBCEEC00A1E
:1062F00010EE103A98B27047F8B58469D4F8DC70A3
:10630000D4F8E0303D68D4F89C1003F01F03042259
:106310009A4015420E6804F19C0017D016F0040F45
:1063200014D00B689B0603D40B6823F004030B60A6
:10633000D4F8CC307A6013B19847D4F89C104B68ED
:106340001BB90B6823F001030B60F8BD02229A40D1
:10635000154218D016F0020F15D00B689D0606D412
:106360000B6823F00A030B60012384F8C130D4F8D2
:10637000C8307A60002284F8C020002BDFD0984714
:10638000D4F89C10DBE708229A402A42D7D0320783
:10639000D5D50A6822F00E020A60012202FA03F340
:1063A0007B60002384F8C030D4F8D030C4F8D82003
:1063B00084F8C120002BBFD1C1E700BF394BD3F80F
:1063C000043530B4F3B938490223C1F8D037C1F8E5
:1063D000D4374FF4A870C1F8D837B0F5A87344BFCC
:1063E0006FF4A073C3181B115B002A33C1F8DC37AC
:1063F000DB00B3F50C7F31DA5B10012030BCC1F853
:10640000E0377047294A2849A2FB03239B0C032449
:10641000082BC1F8D04724D023F00802102A2BD033
:106420001B2B1BD1224A234BC1F8D84702EB40005B
:106430000225B0F85820C1F8D4575200A2F5AB722B
:1064400083FB0230D317C3EBA0035B002633C1F8F4
:10645000DC3703EBC303B3F50C7FCDDB002030BC8E
:106460007047134B03EB40000222B0F85800C1F80C
:10647000D42701239840AEE70D4A02EB4000102BD1
:10648000B0F858004FF00202DDB24FEA4000C1F808
:10649000D42704D0182D08BF23469CD0DEE713462E
:1064A00099E700BF00200040801C002083DE1B43D2
:1064B0009CDA0508398EE3380123437700207047C2
:1064C000D0E90B2108B583690B4483610AB1084602
:1064D0009047002008BD00BF436A1B681B6A5B68C9
:1064E0005B78024613F0010008BF5077704700BF89
:1064F000C2628161704700BF704700BF04307047BF
:10650000C2628161704700BF436A1B681B6A5B6897
:106510009B78024613F0010008BF5077704700BF18
:106520000123437700207047D0E90B2108B5836928
:106530000B4483610AB108469047002008BD00BFA4
:10654000704700BF0430704710B4094CD4F8E4071A
:106550004FF0340C0CFB00F004EB000C04F5FD6470
:106560002044DCF8E847A469A4465DF8044B604782
:10657000801C0020064BD3F8E427342101FB02F2F3
:1065800003F5FD6013441044D3F8E837DB6918477E
:10659000801C0020043070470C4B93F85428D3F82B
:1065A00050180244D2B283F8542893F8542808446F
:1065B0001206C3F8500805D593F8542882F08002DB
:1065C00083F85428024B01221A707047801C002067
:1065D000000000202DE9F047144FD7F85858ED0A75
:1065E0001ED00026B04607F50969D7F85C38104878
:1065F000D3F828A0C7F88888AC19641010234A463D
:10660000E102D0470F280BDD0A4B03F1100C53F8C1
:10661000041B013107D16345F9D12546B542E4DCBD
:10662000E802BDE8F087661CF8E700BF801C002088
:10663000DC24002010250020184BD3F8A018D3F834
:10664000A4288A1A322A15D8D3F8B8288A4200D347
:106650007047D3F8A828E2B11068928810B4446952
:10666000224218BF120432315DF8044B8261C3F834
:10667000B8187047D3F8A8283AB193F8B40811684D
:106680009288C00748BF12048A610022C3F8B82864
:1066900070473231C3F8B818704700BF801C002023
:1066A000064AD2F8A8383BB192F8B4181A689B8809
:1066B000C90748BF1B04936100207047801C00205D
:1066C000044B4FF40070D3F8C838108000200B60E2
:1066D000704700BF801C00200020704701207047D9
:1066E0000120704700207047164BD0F8C0105A6840
:1066F00010B50446D0F8B80071B1131A99420BDCFA
:1067000094F8B030C4F8B820012B10D0D4F8B430CD
:106710000133C4F8B43010BDD4F8C430C4F8B82084
:106720000344C4F8BC3094F8B030012BEED104F12E
:10673000C801201D0FF022FCD4F8B4300133C4F896
:10674000B43010BD001000E0CB070AD490F8283018
:10675000012B08D0C368B3F1807F03D901230377ED
:1067600070477047704730B51C4A1D4BD2F8F84847
:106770005B68456AB4EB930F8DB04FEA93022AD25F
:106780000721022352085B0094429BB201D20139D7
:10679000F8D1C268AB80B2F1807F1AD901220277AA
:1067A00001A9B72000238DF804000291284602A910
:1067B000CDE903328DF814208DF82820CDE9063379
:1067C000CDE908330B930FF0D9FB2A68136A002B2D
:1067D000FCD10DB030BD0223DBE700BF801C0020E0
:1067E0000000002030B590F82830012B8BB0044613
:1067F00005D0407F48B1002363770BB030BD456AB8
:106800002B681A7B2ABB637F13B901200BB030BD04
:1068100012490091124901910221002301220291A3
:10682000284669468DF80C208DF82020CDE90433E8
:10683000CDE9063309930FF0A1FB2A68136A002BF8
:10684000FCD1084B93F8FD3803F0010383F00100FD
:10685000D2E71B6A002BD6D00020CEE7080000202C
:106860007C250020801C00202DE9F0411F4F90F86E
:106870002820437FDFF878808AB00446A7F6FC061C
:10688000012A06D00BB10023637701200AB0BDE8CE
:10689000F081656A2A68117B11BB002BF5D00023BB
:1068A000CDE90433CDE90633099301238DF80C308B
:1068B0008DF82030694602232846CDE900870293EF
:1068C0000FF05CFB2A68136A002BFCD196F8FD38A8
:1068D00003F001036377002BD7D094F82820CFE78B
:1068E000126A002AD6D1002BCFD0D8E77C25002011
:1068F0000800002030B5234A234B95B004462348B6
:106900000493CDE900200023151D21480990083A81
:10691000CDE90A23CDE90E33207F626A05959842BE
:1069200006931093139311934FF0010312688DF89F
:106930000C3007938DF820308DF834308DF84830C6
:106940004FF0020514BF0523042302950C93136A2C
:10695000002BFCD198B10F4B0A0E5A730E330A0A62
:10696000080C5A7099701870606A69460FF006FB3F
:10697000636A1A68136A002BFCD115B030BD064B50
:10698000EDE700BF14000020D96400088025002036
:10699000B9640008000000200D00002010B5044676
:1069A00094B050220749684656F0F0FE606A694686
:1069B0000FF0E4FA636A1A68136A002BFCD114B072
:1069C00010BD00BFFCDA050870B50546406A0068D6
:1069D000046A002CFCD1287F002839D0264CA869F5
:1069E00005266665060E667704F11E0C8CF802001B
:1069F000060C000A8CF800608CF801000868166824
:106A00002066012B4FF00000A6662E63A06726D0FB
:106A1000022B1CD1536820674A6862671E44174ADC
:106A200084F86C000121E3672E6384F88010C4F8B9
:106A30008420134B697F686A03F11402002914BF94
:106A4000194611460FF09AFAEB6A7BB1286B70BDBC
:106A5000094C0420606504F11D0CA869C6E7074ACB
:106A600084F86C30C4E91C20E067E2E76B6A1A68BE
:106A7000136A002BFCD1E9E700000020C164000884
:106A80002400002000B583B081610192049A009334
:106A9000C26201236A4601A9FFF796FF03B05DF8C1
:106AA00004FB00BFF0B50746406A066895B01D4676
:106AB000346A002CFCD13E4E3E4801903E48049082
:106AC00006F1A40000903B7F06940220029006F19C
:106AD0009C0C01208DF80C00CDF814C0002B4FD079
:106AE000CDE90944CDE90E44CDE910440B0E0B92DB
:106AF000052286F89D308DF820400C958DF83400E5
:106B00008DF84800139406F19E0307922B4C72688F
:106B1000D4F8F8C89970080C090A59701870BCEBC1
:106B2000920F786A4FEA92013ED207230222490867
:106B300052008C4592B201D2013BF8D17B7F82801A
:106B4000E3B905A90FF01AFA786A03681A6A002AED
:106B5000FCD17268D4F80839B3EB920F4FEA920176
:106B600024D207240222490852008B4292B201D259
:106B7000013CF8D18280284615B0F0BD6946E1E7B6
:106B80000B920422CDE90933CDE90E33CDE9103360
:106B90008DF8203013930C958DF834008DF8480053
:106BA00006F19D030792B1E70222C7E70222E1E75F
:106BB0000000002084250020D9640008801C0020EB
:106BC0002DE9F0410546406A04688E46236A002B91
:106BD000FCD1DFF8FCC09CF80C39002B3AD0DCF873
:106BE0001079374EC7F3022386F8727186F8713137
:106BF00006F1A801DEF80030C6F848318B68D2F8FB
:106C00000080C6F850810024C6F85841002B54D0AB
:106C10000B46DC691433002CFBD1D2F800E0294C80
:106C2000186077445C6001238CF80C39C7F30A03C1
:106C3000CCF81079DBB1244BC6F858316B7F03B91F
:106C40001431C5F830E00FF099F9EB6A6BB3286B9B
:106C5000BDE8F081AF691A4ECCF81479C7F302236E
:106C600086F8767186F8753106F1F801C2E7DCF82E
:106C700014394FEAD32EDB0C86F87E31C6F878E162
:106C800086F87FE12346B8F1000F03D0DC691433A6
:106C9000002CFBD1D2F800E00C4A18605A600023A7
:106CA000CCF814798CF80C39C8E76B6A1A68136A47
:106CB000002BFCD1286BBDE8F0810B46ADE700BF8F
:106CC0000000002048010020296500088001002004
:106CD000801C002033B910B51C46C36A2046984773
:106CE000204610BD6CE700BF00B583B08161019202
:106CF000049AC26201A96A460093FFF761FF03B0DC
:106D00005DF804FBF0B5836993F8BC20012A8BB0D1
:106D1000054625D0023A012A2DD893F82C21D96FA7
:106D2000164C62F07F030B708669D6F880305F1CCA
:106D30000FCCEC46ACE80F00F36FCDE900370FCC79
:106D4000ACE80F0094E803008CE80300694606F104
:106D500010000FF013F9AB6919690A6A002AFCD117
:106D6000D3F880305A8852BAEA819A8852BA2A8275
:106D7000DB885BBA6B8201200BB0F0BD4CDB0508F1
:106D8000F0B590F8BC30D0F88060012B8BB0044691
:106D900048D014D8C36F4FF0FF321A605A609A601F
:106DA000DA60D0F8C0300522B3F57A7FC0F8D02081
:106DB00052D8032380F8BC3001200BB0F0BD023B59
:106DC000012BF9D890F82D31C26F394D63F07F0354
:106DD0001370D0F880305F1C0FCDEC46ACE80F008C
:106DE000E36FCDE900370FCDACE80F0095E8030065
:106DF0008CE80300694604F110000FF0BFF8226927
:106E0000136A002BFCD173885BBAA4F8B030B38846
:106E10005BBAA4F8B230F38801205BBAA4F8B430AE
:106E20000BB0F0BD90F82C2190F82D319B1A5B101F
:106E30000133DBB206EB430236F813305BBAA0F83D
:106E4000B03053885BBAA0F8B23093885BBAA0F830
:106E5000B43001200BB0F0BD03691A7B1AB35B6933
:106E60000BB390F87830F3B190F82C31C26FC4F8BE
:106E7000840063F07F03137090F82C1190F82D318B
:106E8000D0F880200B48C4F8E4005B1A07330121D6
:106E9000C4F8DC30E36F84F8E0100A44C4E935320A
:106EA00084F8BC1088E7022384F8BC3084E700BF74
:106EB0004CDB0508016000080C4AF8B513685569F9
:106EC0002B4003EA000555617DB1094F0126B5FA53
:106ED00085F4C4F11F0407EB840306FA04F4D3F825
:106EE000180903689847A543F1D1F8BD0004014093
:106EF000801C00200269C3682DE9F04712EA0309EB
:106F00002AD005460E464FF000474FF00008B9FA68
:106F100089F327FA03F2D2431B3B2A6109EA0209EB
:106F2000042B16D8DFE803F03B30251A0300B36AC0
:106F3000002B3FD003F1FF3A1FFA8AFAC6F82880E7
:106F4000746A34B123682046514698476468002C1F
:106F5000F8D1B9F1000FDAD1BDE8F08770680028E8
:106F6000F7D0696B036889B29847B9F1000FCED1A9
:106F7000F2E7B0680028ECD0A96B036889B29847A3
:106F8000B9F1000FC3D1E7E7F0680028E1D0E96B61
:106F9000036889B29847B9F1000FB8D1DCE73069CE
:106FA0000028D6D0296C036889B29847B9F1000F40
:106FB000ADD1D1E7E96A1FFA81FAC1E7F8B53A4CD9
:106FC00004EB401292F8B43303B9F8BD374B4FF4D9
:106FD0009A7C0CFB004C93F8006293F801E29CF859
:106FE0005A7982F89A7376454FF000024FEA4015BD
:106FF0008CF85A290ED00EEB4E0203EBC2024FEA78
:107000004E0792F8042202F1FF3CBCF1010F3DD97A
:10701000032A35D0264B254403EB4010A5F89813DE
:107020000EF082FD2378D5F8B0239BB1D5F89C13E0
:10703000D2F8943001248C4003F1C001420010F4D6
:10704000004F90B202D15A6822435A600C338B42EF
:10705000F4D1F8BDD5F89C43D2F8943004F1100275
:107060000124944003F1C001420010F4004F90B29B
:1070700002D15A6822435A600C339942F4D1F8BDC8
:107080000EF1010202F00302B242C3D0774403EBD7
:10709000C703034493F811120029BBD063190122DE
:1070A00083F89A23B6E700BF801C0020782D0020CB
:1070B000182000202DE9F84310F0F4F82C4CDFF8EC
:1070C000B8802C4D074600266068002845DD002367
:1070D0001A464FF0E40C0CFB0341013391F8DD102C
:1070E000834242EA0102F6D116435FFA86F9164658
:1070F000D8F80430C3F3080363BBEFF311834BBB31
:107100004FF0E02CD4F8A038DCF81810D4F8A02800
:107110009342F7D1D5F864229142F3D8D5F868C2EA
:107120004FF47A7202FB0CF0401AB0FBFCF002FB49
:107130000300C31BB3F5FA6F01DC002EC4D1B9F113
:10714000000F04D00B4B93F86C22542A08D0484609
:10715000BDE8F8830FF076FFEBE7B1460026C7E7FE
:10716000B3F874220132A3F874224846BDE8F883CC
:10717000801C0020782D002000ED00E02DE9F04F6C
:107180002DED028BBD4F83B03B7801932BB90120CD
:1071900003B0BDEC028BBDE8F08FD7F8A038DFF864
:1071A000F0B208EE103A07F566774FF0000AABF53B
:1071B0002076D6F87036534540F3FA80BB69D7F88D
:1071C0000480D3E9334510F06DF896F86C92009086
:1071D00005F1004196F8880339390122B9F1540FBD
:1071E00004EB410102FA08F204EB400301D1A6F8D6
:1071F0007602994240F21581B3F800C01CEA020FF2
:1072000000F00781B3F802C01CEA020F00F01681FB
:10721000B3F804C01CEA020F00F01281B3F806C0F4
:107220001CEA020F03F10803E3D1A3EB040E994219
:107230004FEA6E0E40F2F580A5EB0E05452D28BFF6
:10724000452503EB4505AB4280F0EF804FF0000C85
:107250001C46E046614618881040884218BF023339
:1072600014D158881040814218BF04330ED1988839
:107270001040814218BF063308D1D888104081429F
:1072800003F1080302D19D42E5D802E09D4200F2DD
:107290009880B8F1110F40F2C880D8F1150200F1C2
:1072A000C48077490098D1F8D0319E45D6F88C3308
:1072B00038BFC1F8D0E1C11A00291CDB03F5F42363
:1072C00003F59073984298BFC6F88C336C4B88BF17
:1072D0000098D3F8D0316A4984BF0530C6F88C03D2
:1072E000052B86BF053BDBB2002386F888334FF0C1
:1072F000FF33C1F8D0314AB10CFA02F2C8F11408D8
:107300004FF0010C0CFA08F848EA020C5D4ACCF385
:10731000C4330CF01F0102EB830302EB8101D3F8AD
:10732000D800D1F8D830CCF3441102EB8101CCF372
:10733000842C02EB8C0CD1F8D82043EA003343EACA
:107340000213DCF8D82043EA022383EA132282EAFC
:10735000121202F00F020F2A4CD1B3F5803F49D22E
:10736000B9F1540F4FEA131304D1B6F87022013269
:10737000A6F87022D6F88822B3F5606F02F10102F8
:10738000C6F8882269D00199ABF80C303E4B5C20DE
:1073900018EE102A00FB0A300EF03CFC0AF1010A3C
:1073A000BAF1080F07F120070BF1140B7FF401AFBE
:1073B0000123012086F8843303B0BDEC028BBDE8C5
:1073C000F08F1C1B31496410013481FB0401A1EBD7
:1073D000E4710129B8BF01210CFA01FC88440120A5
:1073E000013900FA01F141EA0C0C33F8021C1C4689
:1073F000114030E7B9F1540F24D0D6F88832013368
:10740000C6F88832D6F884320133C6F884320021B7
:10741000BCE70233A3EB040E99424FEA6E0E3FF62F
:107420000BAF10B1013886F88803B9F1540FB5D10C
:10743000B6F872320133A6F87232AFE70433F4E6DD
:107440000633F2E6B6F870320133A6F87032D6F899
:1074500088320133C6F88832D4E796F8012202EB6D
:10746000420206EBC202524492F811220D2A8AD13E
:10747000802301998BF81E3088E700BF801C002014
:10748000000000209CDA05080831002056555555AB
:10749000F82F002010B5044655F0AEFB81B220460F
:1074A000BDE810408AE500BF38B50B4D00EB400049
:1074B00005F2D44303EBC00393ED027AD3ED037AD4
:1074C000E7EE007AC4002C44B0EE670A55F094FB56
:1074D000D4F8D434186038BD801C00202DE9F04168
:1074E0001F4E96F8002296F801329A4232D11D487A
:1074F0004568002D13DD002410F8088B2746B8F1ED
:10750000000F1FD0037F012B1FD042691368013485
:1075100043F00103AC4200F1E4001360EFD10FF03F
:10752000C1FED6F87446002C0ADD0F4B03EBC404F1
:1075300019689A88C868083302439C42CA60F7D128
:10754000BDE8F081FEF76EFDDFE780F8D470FEF74E
:1075500069FDDAE74FF0D0FC0028C8D1BDE8F08122
:10756000782D0020801C0020F03300202DE9F04110
:107570002A4D95F8002295F801329A4248D195F8A3
:1075800098366BB395F89946254B264F264E002129
:1075900040F20D3C34B3D3F8A820B3F8ACE0D2F8F5
:1075A0000480186808EA07084EEA080EC2F804E0EA
:1075B000D2F800E04EF0010EC2F800E0D0F8DC2373
:1075C000324042EA0C02C0F8DC23C26842F4807206
:1075D000C26095F8982601318A4203F1B803D9DCDC
:1075E000BDE8F0811A68B3F80480D2F800E0B3F87F
:1075F000B4002EF0800EC2F800E0C2F82C80546275
:10760000D2F80CE040EA0E00D060A3F8B440E0E706
:107610004FF072FC0028B2D1BDE8F081782D002037
:10762000143400200000FFFFE0E0FFFF2DE9F047E9
:1076300004460068237D0268022101FA03F31A421E
:1076400009D0A6699E4D4FF49A7202FB065292F839
:10765000441A11B14360BDE8F0879A499A4F4968CE
:10766000C7F85C1C97F89916002900F0CB80D2F877
:107670006029D2F810C01168DCF8002022F0010265
:10768000CCF80020CA6822F48072CA602A78002AE6
:10769000E0D04FF49A7909FB06F905EB090A8B4A09
:1076A000DAF8800ADAF86039C1B20839D3F8008014
:1076B000A2FB01310909864A013120F0FF00914403
:1076C00051F0CAF8D7F8643C01228AF8442A002B0A
:1076D00000F0CD80D8F800204FF49A7303FB0653D6
:1076E00042F08002C8F80020D3F8402A4FF0FF3162
:1076F000B2F5807FC8F82C1000F0BE805BD8012A5C
:1077000000F09280102A22D1D8F82020D3F87C1AD9
:1077100022F01002C8F82020D3F8742A42EA0100AF
:10772000D8F81820D3F8781A22F47F42014342EAAD
:107730001122C8F81820D3F8702AD8F8203023F086
:10774000A00343EA021343F01003C8F820304FF4BB
:107750009A7303FB06550023D5F8800AC5F81C3A36
:10776000C1B2A3F133330839A3FB013109094A46F9
:10777000013120F0FF0051F029F8D5F8802A206867
:1077800053681B0C1B0443F016035360136843F04B
:1077900001031360D5F86029B5F864391268D1681F
:1077A0000B43D360474A237D5168C7F8601C02220F
:1077B00002FA03F34EE7B2F5805FC8D1D8F8202073
:1077C000D3F87C1A22F48052C8F82020D3F8742A07
:1077D00042EA0100D8F81C20D3F8781A22F47F423C
:1077E000014342EA1122C8F81C20D3F8702AD8F8C5
:1077F000203023F4204343EA023343F48053C8F893
:107800002030A4E7D2F880CADCF8001021F0010192
:10781000CCF80010D2F86019B2F864C90968CA68D7
:1078200022EA0C02CA6031E7D8F82020D3F87C1A8B
:1078300022F00102C8F82020D3F8742A42EA01009D
:10784000D8F81820D3F8781A22F0FF02014342EA50
:107850001142C8F81820D3F8702AD8F8203023F045
:107860000A03134343F00103C8F820306FE70FF019
:1078700019FDC7F8640C2DE7D8F82020D3F87C1A3E
:1078800022F48072C8F82020D3F8742A42EA01005A
:10789000D8F81C20D3F8781A22F0FF02014342EAFC
:1078A0001142C8F81C20D3F8702AD8F8203023F4ED
:1078B000206343EA022343F48073C8F8203046E78C
:1078C000801C0020001000E0782D0020CDCCCCCC16
:1078D0009426002010B590F82830012B044603D0E0
:1078E00000230120637710BD406A03681A7B3AB910
:1078F0004FF050FE00F0010383F001006377F2E7E0
:107900001B6A002BF4D0002010BD00BF38B5114D0C
:10791000044694F82830012B05D000236377002318
:107920002362012038BD606A03681A7B72B94FF088
:1079300031FE00F0010060770028F0D0D5F8A038C3
:10794000226A9B1A002BE4DB002038BD1B6A002B47
:10795000EDD0F3E7801C002010B5FF22044690F81C
:107960002810406A53F0FCFB0E4BD3F8A03803F507
:10797000FA7323622046FFF7C9FF94F82830012BE1
:1079800000D010BD606A0022A02153F0C1FB94F822
:107990002830012BF5D1606A1822BDE81040B021D3
:1079A00053F0B6BB801C0020CB0700D5704710B544
:1079B0000446FFF7D1FF94F82830012B00D010BD0A
:1079C0000A4B0B485B68646AB0EB930F4FEA930273
:1079D0000AD20721022352085B0082429BB201D9DE
:1079E0000139F8D1A38010BD0223FBE7000000207D
:1079F00000E1F50538B504460D46FFF787FF06227E
:107A000094F82810606A53F0ABFB94F828300122F8
:107A10009342627705D0064BD3F8A0380F33236228
:107A200038BD606AEA0AD82153F04CFBF3E700BF87
:107A3000801C00208388002B47D02DE9F0478CB0B4
:107A4000DFF8888004464FF00009062701260DF173
:107A5000070509E06677D8F8A038A28809F101097E
:107A60000F334A4523622DD92046FFF74FFF94F884
:107A70002830D4F824A08DF80770012BEAD1002219
:107A800002A95046CDE90252CDE90622CDE90822ED
:107A90000B9204938DF814308DF828300EF06EFAA6
:107AA000DAF80020136A002BFCD194F828306677AE
:107AB000012BD0D14FEA4942606AD20AD82153F053
:107AC00001FBC8E70CB0BDE8F0877047801C0020C0
:107AD00070B5104D95F80C3903B970BDD5F814691F
:107AE0000D4B0446F60AC3F87861FFF70FFF94F8D0
:107AF0002830012B07D0D5F8A038002202332362AA
:107B000085F80C2970BD606A3246102153F0DAFA0C
:107B1000F1E700BF801C0020000000202DE9F047A5
:107B2000424F1E46D7F87831B3EBD12F90B00C46B8
:107B30000546904621D1DFF8F89095F82830C4F337
:107B40000A04C4F50060B04234BF87B2B7B2012B5B
:107B50003CD0D9F8A038023328462B62FFF7D6FE76
:107B600038B195F82830012B23D0384610B0BDE845
:107B7000F087002010B0BDE8F0874FEAD12AFFF768
:107B8000C5FE0028F5D095F828304FF0FF32012BC4
:107B9000C7F8782143D0DFF89890D9F8A03802339D
:107BA00028462B62FFF7B2FE0028E2D0C7F878A182
:107BB000C3E7686A4FF0EEFCC0F3011001380228F9
:107BC000D3D82846FFF7C8FE3846CFE78DF80240E5
:107BD000240A8DF801406C6A8DF824308DF8383015
:107BE000032300228DF8003001A904232046CDE9AB
:107BF0000522CDE90A22CDE90C228DF8032002925C
:107C00008DF810200F92CDE90786CDF804D00393AC
:107C10000EF0B4F92268136A002BFCD199E7686A68
:107C20005246132153F04EFAB5E700BF0000002082
:107C3000801C00202DE9F047089F8846154600214A
:107C4000202204461E4655F0C9FD4FB13B68E38132
:107C50001B0C23827B687A89E3821B0C628223835C
:107C6000404653F0D1FAEB0619D4431EB8B108EBE5
:107C7000000701E0013B12D317F801CDBCF12E0F34
:107C8000F8D1C01A421E032AA8BF0322082B03F111
:107C9000010AA8BF08239146C2441A4606E00828F4
:107CA0000246C246A8BF08224FF000094FF0203319
:107CB00041462360636004F10807204655F066FDE5
:107CC000174B23815146BB704A46384655F05EFD3E
:107CD000611EE31D11F801CFACF1610EBEF1190F69
:107CE0009CBFACF1200C81F800C08B42F2D1384629
:107CF00004F10B0110F8013BA3F16102192A9CBFAA
:107D0000203B00F8013C8842F4D118232373330C44
:107D1000A382E572099B6683E361BDE8F08700BF3B
:107D2000202020002DE9F04FDFF88894D9F8A00832
:107D3000C9F8A40887B0002B00F0DA8001F5FE78BE
:107D40001344DFF874B40393164601F12007C246CA
:107D500021E0002E64D0D9F8D438B34200F0CC80B2
:107D6000D9F8D038B34200F0FF80D9F8D838D9F824
:107D7000DC18B3424BD8B14200F29981711A204607
:107D80004FF00CF8039B01369E4207F500770AF589
:107D9000007A00F0AD80D9F8E058B542A7F1200490
:107DA000D7D8751BD9F8F08805F00702EB080492C4
:107DB000D8F830200233934203D3D8F838209342C6
:107DC0000BD94146184605934EF0B8FF059B8046F7
:107DD000002800F08C81C9F8F00898F80420002AE7
:107DE00040F03481D8F82850002D00F07981D8F87F
:107DF00030209B1A049A02EBC303D8F80C202046CB
:107E000002EB43224FF400714346A847BAE7B14260
:107E1000B4D920464FF40072002155F0DFFCB1E7E1
:107E20004FF400723146204655F0D8FC802387F885
:107E30009E310C2387F8A231D9F8D038D44AD9F82A
:107E4000C818C4F8C6319342C4F8CA1100F334818B
:107E5000D04AD14C82FB03021A44D817C0EB6212FD
:107E600084FB0254CD4D85FB03C5C0EB2530C2EB2E
:107E7000821587F8A1015B1B801020F03F000133C1
:107E80000343144487F8A031D317C3EBE41422440E
:107E9000BF4B87F89F214A1E9A4200F31981BD4BC0
:107EA000BD4883FB02311144D317C3EB611180FB42
:107EB0000140BA4C84FB0254C3EB2433C1EB811460
:107EC00087F8A531121B9B1023F03F0301321343A7
:107ED000084487F8A431CB17C3EBE010014487F8BE
:107EE000A311552387F8DE31AA2387F8DF3149E74C
:107EF000002007B0BDE8F08F4FF0FF3384F8EC317D
:107F000084F8ED3184F8EE3184F8EF31D9F8E838AF
:107F1000C4F8E8315223237063706123A37084F89E
:107F2000E73141230025E37084F8E631722384F8B9
:107F3000E43184F8E5314FF4F0722946A7F11C00D2
:107F400055F04CFC5523C7F8D051C7F8D451C7F8A9
:107F5000D85184F8FE316FF0550384F8FC5184F851
:107F6000FD5184F8FF310DE700214FF400722046E7
:107F700055F034FC8A4A03CA47F81D0CEB2007F879
:107F8000200C582007F81F0C902047F8191C07F800
:107F90001E0C002302220821F820E372227307F846
:107FA000131CA273E37307F8102C07F80B0CD9F815
:107FB000D00884F82C20D9F8C8286376121A2262D7
:107FC000D9F8D808D9F8DC28E376121A3F202076B1
:107FD0004FF0FF30A0763E20207701206377A37713
:107FE000E37784F82D3084F82E3084F82F306262E5
:107FF00084F8300084F8313087F82610802187F823
:108000002010292187F82210942187F823100E21AF
:1080100087F824100D21634A87F82510552187F829
:10802000DE11AA2187F8DF1103CA5F4BC7F82700CA
:10803000C7F82B1003CB1388A7F82F309378C7F815
:108040003200C7F8361087F831309BE64FF40072E3
:108050000021204655F0C2FB049B002B4ED1D8F8DE
:108060004030002B00F0AA80049AD8F830304F49F5
:10807000CDE9002220461122FFF7DCFDD8F8403080
:108080001A6C002A00F0AD80049A1B6BCDE9002227
:10809000474911223846FFF7CDFDD8F8448007F153
:1080A00020044FF4E075B8F1000F3FD16AE6F11AF1
:1080B00020464EF073FE65E6FF2387F89F3187F870
:1080C000A13187F8A031324B4A1E9A427FF7E7AEC2
:1080D000FF2387F8A33187F8A53187F8A43100E79B
:1080E000294620464FF4007255F078FB4AE6A7F186
:1080F000240343F804BF9A45FBD143E6D8F8403047
:10810000049AD8F84480002B0CBF01230223C3EB50
:1081100002154346002B3FF435AE013D9B6CF9D16F
:1081200098464FF40075002B3FF42CAE25442034C4
:10813000234620354446049698460EE05CF81C1B06
:10814000236BCDF800C000260196FFF773FDA46CE9
:1081500008F12008CCB1A84517D02379A44604F132
:108160001C0E1122A8F12000002BE7D162792669AC
:10817000236B216842F02102CDE900E6FFF75AFDAA
:10818000A46C08F12008002CE5D1049EFAE500BF9C
:10819000FF03FB0083200882818080809755454142
:1081A000405D06084C5D0608585D0608385D060807
:1081B0003C5D0608801C0020DEADBEEF049BD9F8B4
:1081C000CC18CDE9003320460822FFF733FDD8F85C
:1081D0004480B8F1000F3FF4D5AD3C464FF4F07544
:1081E000A4E7049BCDE9003352E700BF70B5044615
:1081F00090F8010144F23B33A4F82C3100B970BD72
:108200000EF058FD104B05462146A0B12622C28033
:1082100041F80C3F00231A464EF0B4FFAB884FF0F4
:108220000042B3FA83F332FA03F3E8D007490A684D
:1082300013430B6070BD41F80C3FBDE8704003462E
:1082400002464EF09FBF00BFE966000800040140EF
:1082500058B183884FF00042B3FA83F332FA03F344
:1082600003D002490A6813430B60704700040140C1
:1082700090F8BB30052B03D890F8FE30032B01D0CB
:108280000020704790F8033103F0FB03022B0CBF72
:1082900000200720704700BF70B5394C4FF49A7327
:1082A00003FB004393F8673903B970BD354D95F86A
:1082B00000C295F801329C450ED003EB430205EB5A
:1082C000C20292F804E20EF1FF36012E4FEA430299
:1082D00031D9BEF1030F29D04FF49A7303FB00F09C
:1082E0000444294BA4F8581918440DF01DFC95F8C6
:1082F000993602467BBBD5F8683CD4F8880A012140
:108300009847D4F8845AB4F86439D4F8802AB5F878
:10831000B41019435368A5F8B4101B0C1B04184380
:108320005060136843F00103136070BD5E1C06F0DB
:1083300003066645D0D0134405EBC303034493F80A
:1083400011120029C8D04FF49A7303FB0043012295
:1083500083F85A29C0E7D4F86039D4F8841A5B79D5
:10836000D1F8B00003F0FC0318440421D5F8683CB0
:108370009847D4F8843A8000A3F8AC0070BD00BFE1
:10838000801C0020782D0020D82500200020704778
:10839000704700BF01483FF0C7BF00BFFC39002055
:1083A000084810B4D0F8843CD0F8B84C99691A68E1
:1083B0002CB1234600F684405DF8044B18475DF865
:1083C000044B7047782D002001483FF0ADBF00BF3F
:1083D000603A0020084810B4D0F8E83CD0F81C4DB2
:1083E00099691A682CB1234600F6E8405DF8044B01
:1083F00018475DF8044B7047782D002001483FF086
:1084000093BF00BFC43A0020084810B4D0F84C3DD8
:10841000D0F8804D99691A682CB1234600F64C506B
:108420005DF8044B18475DF8044B7047782D002029
:1084300001483FF079BF00BF283B0020084810B436
:10844000D0F8B03DD0F8E44D99691A682CB12346B4
:1084500000F55B605DF8044B18475DF8044B70470E
:10846000782D0020027A0B4B0168134410B413F8E6
:10847000013CCC5824F00104CC50CA181368DB0727
:10848000FCD4027D5DF8044B0223934043F00C03BF
:108490004B607047F45D06082DE9F041D0F800808C
:1084A000294DD8E90474A0613A7DD4F800C00223B4
:1084B000064603FA02F2386842F00C024260227D5E
:1084C000934043F00C03CCF80430397AD8F81820E4
:1084D0006B1813F801EC50F80E3023F0010340F84C
:1084E0000E30237A2B4413F8013C5CF803E02EF0A5
:1084F000010E4CF803E05CF803E04EF0020E4CF87D
:1085000003E050F063F9D8F81C20217A206850F07D
:108510005DF93B7A386832682B44526813F8011CC5
:10852000435843F001034350237A20681D4415F853
:10853000011C435843F001034350536843F00303C5
:108540005360BDE8F08100BFF45D060810B1036818
:1085500082889A61704700BF10B1036882889A626E
:10856000704700BF08B51D200EF0A4FB08B1837949
:108570004BB11E200EF09EFB08B1837903B108BDFC
:108580005523C38008BD5523C380F2E7D3B20F2B18
:108590002AD84FF0000C10B46346144C04E00133A9
:1085A000252B1DD014F803CF6045F8D194F801C0F5
:1085B0008C45F4D10E4902EB420401EB840201F533
:1085C000EA700C4903EB43030B4400EB840093F87F
:1085D0005A315DF8044BC2F8DC3182F8D43170476F
:1085E00000205DF8044B704700207047F4DB05085D
:1085F000000000209CDA050810B40C4C002304F69F
:10860000FC5C01E0152B0CD003EB430201331CF89A
:1086100002108142F6D122445DF8044B92F9FE0D1E
:1086200070474FF0FF305DF8044B7047782D002005
:1086300030B40023114C124D04E001331E2B1AD02C
:1086400054F8085FA842F8D125798D42F5D10D4C38
:108650000D4802EB420504EBC30300EB850293F8DF
:10866000CD31C2F8DC3100F5EA7000EB850082F80C
:10867000D43130BC7047002030BC704764DC050842
:10868000002C01409CDA0508000000200348D0F8C7
:10869000A43213B100F52570184770470000002080
:1086A0000348D0F8C83213B100F52E701847704750
:1086B000000000200348D0F8EC3213B100F5377009
:1086C00018477047000000200348D0F8103313B15A
:1086D00000F5407018477047000000200348D0F8AC
:1086E000343313B100F5497018477047000000207B
:1086F0000348D0F8583313B100F55270184770474B
:10870000000000200348D0F87C3313B100F55B7003
:1087100018477047000000200348D0F8A03313B179
:1087200000F5647018477047000000200348D0F837
:10873000C43313B100F56D70184770470000002076
:108740000348D0F8E83313B100F576701847704746
:10875000000000200348D0F80C3413B100F57F70FE
:1087600018477047000000200348D0F8303413B198
:1087700000F5846018477047000000200348D0F8D7
:10878000543413B100F244401847704700000020F1
:108790000348D0F8783413B100F58D60184770475E
:1087A000000000200348D0F89C3413B100F28C4044
:1087B00018477047000000200348D0F8C03413B1B8
:1087C00000F5966018477047000000200E4B0138F6
:1087D00000B500EBC00003EB80000C4BD0F8940216
:1087E00083B098420CBFA020A1204EF0BDFD084BE5
:1087F0009A6C42F004029A649B6C03F004030193A8
:10880000019B03B05DF804FB000000200000024063
:1088100000100240F0B50138194C00EBC00004EB29
:1088200080041D461748D4F8943283B083420CBFAD
:10883000A020A1200E4617464EF096FD124B9A6CD2
:1088400042F004029A649B6C94F9A902C4F8A462F1
:1088500003F004030193B909C4F8AC52019B4EF034
:108860003BFC94F9A932002B08DB5809074903F0B7
:108870001F03012202FA03F341F8203003B0F0BDD8
:1088800000000020000002400010024000E100E073
:10889000800AA0F58010542806D8044B1B5C0B2BD3
:1088A00002D8034AD0567047002070479CDA05086A
:1088B000E45D06080120FEF7FFBA00BF0220FEF7C4
:1088C000FBBA00BF0420FEF7F7BA00BF0820FEF78E
:1088D000F3BA00BF1020FEF7EFBA00BF4FF4787074
:1088E000FEF7EABA4FF47C40FEF7E6BA30B103680F
:1088F00082881B691A4214BF01200020704700BF04
:1089000070B50C4686B016460546D8B1036803F12B
:1089100038439B0A0D4A134493F8B8024EF024FDE5
:10892000AA882868059604F01303CDE9012301A95C
:10893000C4F34113C4F38104CDE903343FF0EEFBEB
:1089400006B070BD4FF0FF33E4E700BF9CDA0508C6
:1089500000B1D5E770472DE9F84FC04F642303FB02
:1089600000730646D3F86C4C002C00F06C81D3F8F1
:1089700074ACBAF1000F04D09AF80630002B40F026
:108980006281642303FB0673D3F8785C1DB1AB7975
:10899000002B40F05881731CDBB2BAF1000F04D0F9
:1089A00015228AF806208AF8073015B11622AA7116
:1089B000EB714FF0640909FB06F907EB0908207E0B
:1089C0004EF0D2FC2946504651F0CCFD98F87E3C42
:1089D00098F87C2C002B14BF3E211E215046FFF737
:1089E000B7FF98F87E3C98F87D2C28469C4D002BCC
:1089F00014BF3E211E214D44FFF7AAFF4C22002147
:108A0000284654F0EBFED8F86C3CB8F8809C5B68C4
:108A1000C8F8843C934B9FED947A9A68934B9FEDF2
:108A2000945AC2F302221344B0EE084A93F8C032BB
:108A300003F01F028F4B5B68D34007EE903AF8EECD
:108A4000677A4FF0000EC7EE275A40F2145807EE2F
:108A5000909A9FED897AF8EEE77A25EE844AC7EE80
:108A6000274ADFED867AB0EE007AE5EE877AA5EE4A
:108A7000875A74EEE72A37EE856AF7EE003AB9F5C1
:108A8000C87F0EF1010C07EE90CAD5BF64233223D4
:108A90004FF4967078200344B8EEE77A07EE903AE8
:108AA00027EE257AF8EEE76AD8BF4FF4167A86EEFD
:108AB000873ACABF4FF4827A41464FF4FA7101EB0C
:108AC0000A0373EE636AFCEEE67A17EE902A07EE6D
:108AD00090AAB8EEE73A07EE903A23EE243AF8EE81
:108AE000E77AC3EE276A36EEC53A72EEE66AC3EE5F
:108AF000077A77EEE37AFCEEE77A17EE901AC6EE85
:108B0000877A77EEE37AFCEEE77A17EE903A03F194
:108B1000020A0AEB010B07EE90BAF8EE677AF0EE64
:108B2000466AE7EE276AF4EEE64AF1EE10FA00F341
:108B30008E805FFA82FABAF10F0F00F28A80323823
:108B400007EE900AF8EEE77A77EEC47AC7EE876A06
:108B5000FCEEE67A17EE900A5FFA80FABAF10F0F90
:108B600077D81FFA81FABAF1FF0F72D81FFA83FA89
:108B7000BAF1FF0F6DD8120502F07F624AEA0E7358
:108B8000134300043E4A00F47F00034302EA01213C
:108B90000B43642000FB06760027C6F8883C0123BF
:108BA000C6F8903CC6F88C7CC6F8947CC6F8987CD5
:108BB000C6F8A07CC6F8A47C284650F03DF896F88C
:108BC000C53C202BD9B21AD196F8C43C012B16D043
:108BD000242386F8C53CD6F8843C1A6822F00102AA
:108BE0001A601A6822F480521A601A681A601A68A9
:108BF00042F001021A6086F8C51C86F8C47C94F91C
:108C00001A0000214EF068FA94F91A30A27E002B67
:108C100007DB02F01F0101228A405B09194941F874
:108C2000232094F9190000214EF056FA94F91930D6
:108C3000627E002B07DB02F01F0101228A405B09E4
:108C4000104941F82320BDE8F88FE64617E70131C7
:108C50005FE7BCF10F0FF8D100239AE7782D0020D1
:108C6000FC39002000100240286B6E4E9CDA05088B
:108C700000001643000000200024744900007042E8
:108C800000FFFF0000E100E02DE9F047804DC0EB60
:108C9000001605EBC60682B0D6F83C3E002B00F06D
:108CA000B5800446070196F8AC0E4EF05DFB96F8D1
:108CB000AC3E03F01F025B090121013B01FA02F205
:108CC000042B0BD8DFE813F00500CC00D200DB004A
:108CD000C6007049CB6A23EA0202CA623B1B05EB5D
:108CE000C30304F1010A93F8400E0DF0E3FF5FFAAD
:108CF0008AFA064618B1122380F807A083713B1B3D
:108D000005EBC30393F8410E0DF0D4FF814618B173
:108D1000132380F807A083713B1B05EBC30393F873
:108D2000420E0DF0C7FF804618B1142380F807A04B
:108D300083713C1B05EBC405484695F8442E2E2153
:108D4000FFF706FE95F8452E0E214046FFF700FE80
:108D500095F8432E2E213046FFF7FAFDD5F83C3E1C
:108D60004D491A688B4222F040021A6051D04B4A9A
:108D7000934265D002F58062934254D1454A916B8B
:108D800041F400419163916B21F4004191635A6871
:108D900042F480525A601A6852062FD440491D6826
:108DA000D1F8D864D1F8D424D1F8E844D1F8F40447
:108DB0003243D1F8E0643243D1F8E4643243D1F86D
:108DC000EC6422433243D1F8F06425F47F4532430A
:108DD00025F0BF0502432A431A605D68D1F8DC2400
:108DE00025F4706525F0040542EA14422A43B0F5E3
:108DF000005F5A6004BFB1F8F8241A61DA6922F4FE
:108E00000062DA611A6842F040021A6002B0BDE8FE
:108E1000F087204A116C41F480511164116C21F4E7
:108E200080511164B3E71F4A9342B0D1194A116CC3
:108E300041F400411164116C21F400411164A6E772
:108E4000144A916B41F480419163916B21F480410C
:108E500091639CE70F498B6A23EA02028A623DE72D
:108E60000C490B6C23EA02020A6437E7094B996D3F
:108E7000114399659B6D1A400192019B2EE7054BAA
:108E8000D96D1143D965DB6D1A400092009B25E72F
:108E9000782D0020001002400030014000380040D2
:108EA00000000020003C01402DE9F04F8146DFF832
:108EB000C082D9F80040A94DD4F804B0A84EC345EB
:108EC00083B000F00981A74B9B4500F0538103F567
:108ED00080639B4500F06181A34A934514BF4FF026
:108EE000FF320322DBF80010B9F80430208999F82A
:108EF00068A021F040014FF0010C984284F824C092
:108F0000CBF8001040F00E8199F80C30A17A99420C
:108F100024D096490193C2EB021201EBC2020092E7
:108F200092F8400E002B00F0E3800DF0C3FE019B91
:108F300038B1009A4E2192F8432EFFF7E1FC99F8E0
:108F40000C30DBF8002022F00102CBF80020DBF827
:108F5000002022F00202CBF80020A372DBF80030E0
:108F600043F04003CBF80030236A9A68002A00F0EF
:108F7000278100201433844653F8101C944401EADE
:108F8000050E31B162694AB3BEF1805F26D0B645A5
:108F900024D053F8141C143301EA050221B1B2F1B4
:108FA000805F1BD0B24219D053F80C2C0130002A3C
:108FB000E2D1237B93B1BAF1000F0FD0012800F268
:108FC0000881BCF1070F00F2048100EB80029200DF
:108FD000236A1A44137B002B00F0FB80236A9B68F2
:108FE0004FF0000A002B64D0BAF1000F02D09AF8BB
:108FF0000C302BB1D9F8083013B11A689B889362F2
:10900000236A62681F68236A5868236AD3F808E0F5
:109010005368BEF1010F23F48053536014DD714691
:1090200093689B07FCD5002F37D037F8023B93811C
:109030009368DB07FCD5D36808B120F8023B0239FE
:109040000129EDDC0EF0010E536843F480535360A8
:10905000BEF1000F0CD093689907FCD5002F45D0C6
:109060003B7813739368DB07FCD5D36800B10370BA
:10907000236A1B7B002B31D1236A1B6983B1236ACE
:10908000D9F874001B69984701280ED0022807D12F
:109090000023236203B0BDE8F08F4FF6FF73C6E7ED
:1090A000D4F820A0236A14332362236A9B68002B20
:1090B0009AD1236A1B68002B00F09C80236AD3E9B5
:1090C00000912162D9F80040D4F804B00022C345D1
:1090D000C3E900227FF4F7AE002203E7D9F8083095
:1090E000002BC9D01A689B889361C5E7FF23B8E7B6
:1090F0000DF0E0FD019B38B1009A2E2192F8432E2D
:10910000FFF7FEFB99F80C30DBF8002042F001027B
:10911000CBF80020DBF8002042F00202CBF8002060
:10912000A3721BE71946B3F5807FA8BF4FF4807385
:10913000022BB8BF0223DBF80000002B93FAA3F345
:10914000B3FA83F308BF4FF0FF33013B20F0380040
:1091500040EAC303CBF800302181D5E60080FFFF51
:109160000080012000380040003C0140782D0020A4
:1091700000300140204FB9F804103B68208999F86D
:1091800068A023F040030122884284F824203B6039
:109190003FF4BAAEC1F34F03C5E7DBF80030B9F8CE
:1091A0000410228999F868A023F0400301208A4224
:1091B00084F824004FF00202CBF80030EAD1A3E695
:1091C000237B002B3FF40AAFBAF1000F7FF400AF0E
:1091D00004E7D9F80000002151F0E4FFD9F8083085
:1091E00013B11A689B889362484603B0BDE8F04FFC
:1091F000FFF752B923624DE70038004010B100225A
:10920000FFF77EBB704700BF2DE9F0430269177876
:10921000012F85B004460D4618D10B79013B13711F
:109220004B79002B08BF682300F1100803754FF03D
:1092300000093B460DF10502752140468DF8059069
:109240000DF006F9064600283ED12269022313706C
:10925000EB7823B90026304605B0BDE8F08304F171
:109260001008A97840460CF047FD06460028F1D0CA
:10927000E8780DF01FFDA0612B780133DBB210B14F
:10928000C371222383710D21FFF7B8FFA069FFF797
:109290005DF9424AD2F8A038632BFBD94048DFF889
:1092A0000891404F0CF012FDA08202E059F8047BB7
:1092B0005FB34046B84703460028F7D0206984F8DA
:1092C000B83051F017FAC6E7206951F013FA3B465F
:1092D00049460DF1060240460DF0BAF89DF80630F9
:1092E00003F07E038DF8063008B1682B14D09DF88A
:1092F000053003F07E03682B8DF805300FD0702BFE
:10930000A9D1042384F8B830A5E7E8780DF0D2FCA1
:109310000DF030FD3E469EE784F8B8709BE70222D0
:10932000062384F8B820194602AA40460DF090F8AA
:10933000E0B19DF80D309DF80B209B00520002F02B
:10934000020203F0040313439DF8092002F0010216
:1093500013430BD0012B1DD0022B17D003F00303B6
:10936000032B13D0032010F073FE74E701230DF1DB
:10937000070240460C210DF06BF80028F2D09DF852
:10938000073013F00F03EDD0042B03D0012384F832
:10939000B93060E7002384F8B9305CE7801C002016
:1093A00040420F003D50040868DD05080E4B70B5C3
:1093B000D3F87066002E15DD0C4C002503E0B54295
:1093C00004F120040ED0237F0135002BF7D0E06894
:1093D00000220028F3D0217DFFF792FAB54204F174
:1093E0002004F0D1012070BD782D0020182000202D
:1093F000F8B590F8BE311C09013C052C0FD81B4E66
:1094000006EB44020546B2F8E80203F00F0340FA07
:1094100003F2D20703D595F8C971012F01D00120BD
:10942000F8BD07FA03F3013B1840344452F018FC2E
:1094300094F8F4220E49104451F8302001EBC00199
:1094400010698B881840EBD0002395F8BF2185F870
:10945000C93108460221FFF753FAD5F820211368D5
:1094600043F0080338461360F8BD00BF9CDA0508D6
:10947000943D0020800000F1804000F51450006809
:10948000704700BF800000F1804000F5145001607B
:10949000704700BF244B2548996D254A10B441F010
:1094A00080519965996D83B001F0805101910199C6
:1094B000016841F480710160996D41F480619965A2
:1094C000996D01F4806100910099D3F8901041F4F6
:1094D0000041C3F89010FF24CA2053215462506207
:1094E0005162D3F89430DB0014D4124B124900229D
:1094F000C3F80425C3F80825C3F80C25C3F81025C4
:10950000C3F81425C3F81825C3F8001503B05DF897
:10951000044B7047074A084BD2F800259A42E4D121
:1095200003B05DF8044B704700100240007000402B
:10953000002800400020004031666542F0B500F18F
:10954000F8020446D0F82801474BC1B20839A3FB02
:10955000013183B0A36801920909013120F0FF00B5
:109560001E684FF079F9D4F8E810019A0023012918
:1095700084F8EC3004F1BC071AD0042918D0102963
:1095800066D0402914D0B1F5807F5DD0B1F5806FF1
:109590005AD0B1F5805F63D0B1F5804F54D0B1F5AA
:1095A000803F0CBF6FF0080C6FF4006C382301E0B3
:1095B0006FF0080C06F118053046E95801EA0C0175
:1095C000E950D4F8E8104EF027FED4F8E830012B2B
:1095D00019D0042B17D0102B12D0402B13D0B3F579
:1095E000807F2DD0B3F5806F2AD0B3F5805F32D065
:1095F000B3F5804F24D0B3F5803F06F1500502D07B
:109600004FF4006100E008212B68D4F828010B43D7
:1096100010212B60144BC4F8C410C1B20839A3FB4D
:10962000013109093A46013120F0FF004FF0CEF830
:10963000D4F82821136843F00203136003B0F0BD8F
:1096400006F11C050821DFE76FF0080C0423B1E7E1
:109650006FF4006CAEE706F11C054FF40061D3E730
:109660006FF4006C0423A5E7CDCCCCCC2DE9F04FF2
:109670008E4B2DED028B1C7885B034B90124204629
:1096800005B0BDEC028BBDE8F08F884DD5F8A03851
:1096900008EE103A0DF006FE854B019093F8583213
:1096A000002B00F0FB80834B05F65817A3F588725A
:1096B0003D4603970026A3F5647B1C461746DBF85E
:1096C000643C019AD31A04D4D5F8F0209342C0F236
:1096D000C980764B4FF49A7202FB063393F8443AF2
:1096E00003F0FF020092002B00F08280AB68A98992
:1096F0001A68D5F828315B681FFA83F8D368C8F177
:10970000160823EA0103B8F1070FD36070D9DBF81C
:1097100088320133CBF88832D5F8303102939E4637
:1097200000225EF804CB012191468A4660461CE087
:10973000DEF800C0B9F1140FACEB00031EDC13F12E
:10974000080048BF03F11700031109EB2019604618
:1097500003F1FF3C013102FA03F388450AFA0CF2E7
:1097600042EA03020EF1040E08D38845E0D8C9F19D
:109770001503DEF800004FF01509E9E7B9F1150F00
:1097800067D14D48C2F38423C2F3441100EB830335
:1097900000EB8101D3F8FC32D1F8FC121B0243EA42
:1097A000011302F01F0100EB8101C2F3C43200EB90
:1097B0008202D1F8FC12D2F8FC220B4343EA0233B6
:1097C00083EA132282EA121202F00F020F2A40D11A
:1097D000C3F30F134FF6FF7293423AD0B3F5606FA5
:1097E00047D0BB81009918EE102A20460CF012FADF
:1097F0002846FFF7A3FE2E4B93F8583201369E42BF
:1098000004F15C0407F1140705F59A75FFF657AFEC
:1098100001210022039F8BF88413CBF8642C002BCA
:109820003FF42CAF4FF49A7202FB037397F8B42005
:10983000D7F8E80012F0020FBA6811680A6A07F553
:109840009A7714BF42EA80020243BB420A62EDD11A
:1098500014E7DBF884320133CBF88432BEB1002345
:109860000093BFE70024204605B0BDEC028BBDE8A5
:10987000F08F9BF8012202EB42020BEBC202324452
:1098800092F811220D2AACD18023BB77AAE7029966
:109890000A48582253F07AFF0096A3E7084A0121AC
:1098A00082F88413C2F8643CE9E600BF801C002003
:1098B000703E0020083100209CDA0508A43000200A
:1098C000782D0020F8B5D0F820112423C0F8A0315D
:1098D0000A68002322F001020A600B604B608B6073
:1098E00090F805C0C0F8A83180F89C31C0F8A031CC
:1098F000C0F83831C0F8A431C0F84031C0F8343174
:109900004FEA8C2303F480538268C0F828314FEA71
:109910000C33C0F8242103F40053C04AC0F82C31A2
:109920004FEA0C2303F480639142C0F8303104BF46
:109930000423C0F844310379044600F5907513F010
:1099400001001CBF0422C4F8342113F0020305D027
:10995000D4F8342142F00802C4F834211CF0010F7D
:109960000DD048B1D4F8482142F00202C4F8482191
:109970004FF48032C4F85021002B40F0F780A84B00
:1099800003F12C0053F8042B944200F0B580984268
:10999000F8D11CF0080F40F0C580D4F8A031002B9E
:1099A00000F00D812423C4F8A0310B6823F00103DB
:1099B00028460B6044F0CAF9012815D0D4F8483184
:1099C000002B40F00A81D4F820315A6822F49042EA
:1099D0005A609A68284622F02A029A601A6842F071
:1099E00001021A604EF0F4FF2379D9075ED5D4F84E
:1099F000FC20002A00F0D080D4F80431E2638022F9
:109A000004F13C070026E264C4F8A03020224FF4A1
:109A10008053C4E916233846C4E91166C4E91466C4
:109A20004FF058F938463EF0CDF9D4F8A431C4F8D7
:109A30009871202B656634D1626992B3E36899B25C
:109A400079B394F89C0101282BD0A4F87C117549B6
:109A5000A166754994F86000E166744921670121A7
:109A60004FF0220C8842C4F8A861C4F878216667D8
:109A700084F89C11C4F8A4C10AD094F8610084F859
:109A800060100128D4F8201100F0AF8084F86060E5
:109A9000102100222023C4F8A81184F89C21C4F8C6
:109AA000A031E26B23795268C4F814219B0772D568
:109AB000D4F80021002A64D00023C4E92C33D4F860
:109AC0000811C4F8A830C4F8B8304FF48053C4F873
:109AD0009C2004F19C061022C4F8BC308023304640
:109AE000C4E92812C4F8AC304FF0F4F830463EF028
:109AF00069F9002866D0FEE7002C3FF44AAF94F8DD
:109B0000C831002B3FF445AFD4F8483143F0080387
:109B1000C4F848311CF0080F4FF40043C4F8583122
:109B20003FF43BAFD4F8A031002B53D02423C4F82A
:109B3000A0310B6823F0010328460B6044F006F9BE
:109B400001283FF451AFD4F84831002B49D1D4F863
:109B500020315A6822F490425A609A6822F0220218
:109B60009A609A68284642F0080236E7D4F84831ED
:109B700043F00103C4F848314FF40033C4F84C31CA
:109B8000FDE6D4F8AC311A6842F080021A601A6817
:109B900042F040021A60F8BDD4F8AC21116841F4DB
:109BA00080711160916841F001019160116841F08C
:109BB00020011160116841F01001116076E784F80E
:109BC0009C31EFE6D4F89C30C4F89461C4F8C450DA
:109BD0005860F8BD84F89C31A8E7284644F014FF8B
:109BE000F1E6284644F010FFB1E79BB22431384635
:109BF0003EF07CF900287FF44BAFD4F8203184F894
:109C00009C011A6842F480721A609A6842F001025C
:109C10009A609A6842F040029A6042E700800040F1
:109C2000D0400020CD830408018404080584040882
:109C300070B5EFF31185502383F31288D0F800310B
:109C40001B6813F0010303D0EDB285F3118870BDDA
:109C5000D0F8A021D0F8A4110A4302F02102212A51
:109C60000446F1D0D0E909218A424AD09CBF1A4665
:109C70000069A26288BF531AD4F8A02198BF431A82
:109C80000026202A9BB284F8B061DDD1A269511868
:109C9000DAD0002BD8D094F89C21012AD4D0D4F863
:109CA0009401A4F876314FF0010C2122C4F8A86188
:109CB000C4F87011A4F8743184F89CC1C4F8A021D0
:109CC00040B31A4A90F824E0C262194A0263E6459A
:109CD000184A42638663D4F8202108D080F824C053
:109CE00090F825C0BCF1010F0FD080F8246010213E
:109CF00000222023C4F8A81184F89C21C4F8A031C4
:109D0000A2E7012380F8B0319EE728323EF0EEF85A
:109D10000028ECD1D4F8203100224021196284F8C7
:109D20009C219A6842F080029A608DE7A58304081E
:109D3000C98304080584040870B5D0F82041E3699C
:109D40009906054614D5606AEB6AC0B2002B74D040
:109D5000296B9847D5F82041236823F4807323604A
:109D6000A36823F00103A360A36943F00803A36180
:109D7000E369DA0744BF01232362E3699B0744BF19
:109D800002232362E3695E0744BF04232362E3697D
:109D9000180744BF08232362E369590614D54023FA
:109DA000236295F8C961002E31D0D5F80031CBB1CE
:109DB0002846FFF73DFF95F8B0311BB195F8C96112
:109DC000002E4BD0D5F82041D5F8003163B1E369BE
:109DD000DB0606D56B6B13B19847D5F820411023ED
:109DE000236270BDD5F82041E3691A06EFD5D5E9A5
:109DF000092393422DD0AA69D25CD2B2A2622A6909
:109E00000133B3FBF2F102FB1133AB62DFE795F8EC
:109E1000BE010CF04FFF236823F0080323600123E9
:109E200085F8C9310028C0D032462021FEF768FDF0
:109E3000D5F80031002BBBD1D4E7EB696A69D05467
:109E4000EB69EA680133B3FBF2F102FB1133EB611A
:109E500080E7236823F080032360B8E795F8BE010C
:109E60000CF028FFD5F820412368012223F00803D5
:109E7000236085F8C9210028A6D032462021FEF7AC
:109E80003FFD9FE72DE9F04FDFF814931F4609EBE4
:109E9000800383B0D3F86042002C7CD0D4F8B85152
:109EA000B74B23606B68C4F8AC312B6B6361EB6A12
:109EB000A361EB8EE360AB8E2361B24BA160C4F86B
:109EC000B43195F800A009EB4A03904693F98C222F
:109ED000511C06464FEA4A0B40F0B580D94499F927
:109EE0008D32013340F09A80D4F8000188B1A64B3E
:109EF00000225968884203F1240302F1010200F0B4
:109F0000E680102AF5D1A14B93F88C22002A00F0AC
:109F10001881D4F8FC0088B19B4B00215A6890420C
:109F200003F1240301F1010100F0A4801029F5D10F
:109F3000964B93F88C22002A00F00B816B68C4F8D2
:109F4000203195F82400002840F0918094F8BE015B
:109F50000CF0B0FE022117F0080294F8BC9184F8CE
:109F6000C91103461BD068B317F0510F14BF0A2163
:109F70001A210B2217F0010F06F10106C67182713A
:109F800014BF4023202394F8BF211943FEF7B8FCE7
:109F9000D4F8FC305BB3204603B0BDE8F08F18F076
:109FA000020F0FD070B14FF00B0C80F806C03B06CB
:109FB00006F1010C80F807C000F1D48094F8BF21AD
:109FC000FEF79EFC18F0010FE2D048460CF072FE3E
:109FD0000028DDD00C220136C671827194F8BD21B3
:109FE0000221FEF78DFCD4F8FC30002BD3D195F87C
:109FF000291095F9270089094DF06EF895F9273059
:10A0000095F82720002BC6DB61485B0902F01F0290
:10A01000012101FA02F240F82320BCE799F98C22D1
:10A0200051460520FEF7B2FA00283FF45DAF4368C1
:10A03000C4F8FC308368D4F80001C4F80431002867
:10A040007FF455AF65E751460420FEF79FFA0028DC
:10A050003FF444AF4368C4F80031D9448368C4F87E
:10A06000083199F98D3201333FF43EAFD6E74DF018
:10A070007BF96BE7C9B2454B013901EBC10103EB39
:10A0800081012B7891F8B0220133DBB2002A7FF4F2
:10A0900055AFD1F8940281F8B1323E4B98420CBFD3
:10A0A000A020A1200C2381F8B0324DF05DF93A4A8E
:10A0B0006B68916C41F004019164926C02F00402AF
:10A0C0000192019A03F12402C4F81C2137E75FFAD8
:10A0D00082F92E4B09F1FF3202EBC20203EB82033D
:10A0E0002A7893F8B0120132D2B200297FF411AF6E
:10A0F00083F8B1222748D3F8942282420CBFA020D3
:10A10000A1200B2283F8B0224DF02EF9224B2349D7
:10A110009A6C42F004029A649B6C95F8282003F034
:10A1200004030093009B48462346FEF773FB6B68CD
:10A13000D4F8FC002833C4F8183100287FF4ECAEC2
:10A14000FCE62A78013283F88D220B2283F88C22D8
:10A15000DFE62A78013283F88D220C2283F88C22E4
:10A160006B68ECE6D4F820110B68012723F0080394
:10A170000B6084F8C9712021FEF7C2FB22E700BF03
:10A1800018DE0508F193000894020020000000206A
:10A1900000E100E00000024000100240F962000807
:10A1A000703E0020BFF34F8F0549064BCA6802F48A
:10A1B000E0621343CB60BFF34F8F00BFFDE700BFEA
:10A1C00000ED00E00400FA052DE9F843BFF35F8FCE
:10A1D000474A00210B46C2F894100846C2F898304E
:10A1E0000133112BC2F89C10C2F8A010F6D1052340
:10A1F000C2F89430BFF34F8FBFF36F8FBFF35F8F01
:10A200003C4C3B4FC2F894000026012520E0002A78
:10A210003AD0D4F80080637AA17AE07A1B0643EA48
:10A22000017343EA4203217B627BC7F8986043EAEB
:10A23000804343EA414343EA0243013643F00103CA
:10A24000032EC7F89C8004F11004C7F8A0301CD07E
:10A250006368227A002BDAD0D4F80080002ADAD1A1
:10A2600028F01F09A3EB0909B9F1200F38BF4FF0FF
:10A270002009484653F038FA431E05FA03F2914587
:10A2800008BF1846C2B2C6E7FEE70523C7F89430F8
:10A29000BFF34F8FBFF36F8FFB68174C4FF6FF0272
:10A2A000134043F0052343F47A03144AFB60144B34
:10A2B000D2F89420C3F8A42243F096FCD7F8FC20EF
:10A2C000104BB0FBF4F042F080720021C7F8FC2084
:10A2D00059601A680C4942F001021A608B680B4AF7
:10A2E00043F480438B60C2F86802BDE8F88300BF86
:10A2F00000ED00E0FC04002040420F00001002408E
:10A30000703E0020001000E000700040782D00201A
:10A3100008B572B6FFF746FF890AA1F580115429E6
:10A320002DD81E4B10B513F801E0BEF10B0F25D848
:10A33000EFF31184502383F31288036803B3844638
:10A340004CF8243F043300F1140252F8041B19B1F5
:10A35000196052F8043C04336245F6D100221A60B9
:10A36000E3B283F31188436A73B10D4B03EB8E1E86
:10A37000DEF8A822D36843F00103D36010BD704714
:10A3800000F1240C6346DEE7054B03EB8E1EDEF87E
:10A39000A822D36823F00103D36010BD9CDA05081E
:10A3A000703E0020F0B50468A30AA3F58013542B77
:10A3B00029D8244DEB5C0B2B25D84579AE0819B371
:10A3C0004FEA950C204D05EB831503EB8300D5F880
:10A3D000A87203EB400030441C4ED7F80CE0022575
:10A3E00005FA0CF506EB800C45EA0E05CCF898153D
:10A3F000CCF8A825FD60164A2C20214600FB03203E
:10A40000BDE8F04088E7F0BD0F4800EB831035460B
:10A41000D0F8A8C203EB8300DCF80C7003EB40001B
:10A420004FF0020E30440EFA05F5084E27EA0505F6
:10A43000CCF80C5006EB8005C5F89815C5F8A82592
:10A44000D9E700BF9CDA0508703E0020801C002080
:10A450001422002003689B0AA3F58013542B1ED8F6
:10A460000F4AD35C0B2B1AD861B10E49427901EB2C
:10A4700083139208D3F8A8120223C86893400343B9
:10A48000CB6070470749427901EB83139108D3F8F9
:10A49000A8020222C3688A4023EA0203C36070470D
:10A4A0009CDA0508703E002003689B0AA3F5801320
:10A4B000542B0ED8074AD25C0B2A0AD80649437996
:10A4C00001EB821299080223D2F8A8228B40DB43C9
:10A4D000136170479CDA0508703E0020014902486C
:10A4E000FCF708BD14220020002C014010B5064CDA
:10A4F000064804F29451FCF7FDFC04F5E4610448BD
:10A50000BDE81040FCF7F6BC801C0020002C014088
:10A510000044014002494FF08040FCF7EBBC00BF13
:10A520004022002001490248FCF7E4BC6C220020D4
:10A530000004004001490248FCF7DCBC98220020DE
:10A540000008004001490248FCF7D4BCC4220020A6
:10A55000000C00402DE9F843194E3569F3681D40A1
:10A560000FD0DFF860804FF00047B5FA85F227FA88
:10A5700002F3DB431F2A336105EA030503D0002DF4
:10A58000F3D1BDE8F883D8F89836A3B103F1FF39C9
:10A5900000231FFA89F9C8F89836D8F89446002C99
:10A5A000EDD023682046494698476468002CF8D1CE
:10A5B000002DDAD1E5E7F16A1FFA81F9EDE700BF76
:10A5C00000100040801C002001490248FCF792BCAA
:10A5D000482300200034014001490248FCF78ABCAE
:10A5E000482300200034014001490248FCF782BCA6
:10A5F000742300200040014001490248FCF77ABC66
:10A60000CC2300200048014001490248FCF772BCFD
:10A61000F8230020005001402DE9F0414FF40F7263
:10A620008CB000215D485E4EDFF8808153F0D6F893
:10A630005C4B1A6E42F400621A661A6E02F40062F3
:10A640000092009A9A6D42F001029A659A6D02F0AA
:10A6500001020192019A9A6D42F002029A659A6D86
:10A6600002F002020292029A9A6D42F004029A6586
:10A670009A6D02F004020392039A9A6D42F0080266
:10A680009A659A6D02F008020492049A9A6D42F05B
:10A6900010029A659A6D02F010020592059A9A6D61
:10A6A00042F020029A659A6D02F020020692069A04
:10A6B0001A6E42F400521A661A6E02F400520792A1
:10A6C000079A1A6E42F480321A661A6E02F48032C9
:10A6D0000892089A1A6E42F400321A661A6E02F450
:10A6E00000320992099A1A6E42F480221A661A6E92
:10A6F00002F480220A920A9A1A6E42F480121A66B2
:10A700001B6E03F480130B930B9B06F62C25374628
:10A710004FF0804106F521644246002301E054F8E1
:10A72000332091420BD001330C2BF8D100201C3781
:10A730004CF01AFEAF420CD057F81C1CECE71A4A3A
:10A7400002EBC3031C3793F8DC0D4CF00DFEAF4257
:10A75000F2D1164F164C4FF080413A46002301E0EB
:10A7600054F8332091420BD001330C2BF8D1002048
:10A770001C364CF0F9FDAE420CD056F81C1CECE730
:10A78000094A02EBC3031C3693F8DC0D4CF0ECFDD8
:10A79000AE42F2D10CB0BDE8F08100BF142200201F
:10A7A00064DE0508001002409CDA0508002C014018
:10A7B00074E80508800AA0F5801054280CD8074BCF
:10A7C0001A5C0B2A08D8064B03EB8213D3F8A82295
:10A7D000136843F001031360704700BF9CDA05085B
:10A7E000703E00201F4B984227D003F5006398422B
:10A7F00023D003F5406398421FD003F5806398424D
:10A800001BD003F58063984217D003F5006398428C
:10A8100013D01549154B8A681548C2F30222134418
:10A820008A6893F8C032406803F01F0312F4E06FA7
:10A8300020FA03F000D0400070470B490B4B8A68A8
:10A840000B48C2F3C22213448A6893F8C0324068AE
:10A8500003F01F0312F4605F20FA03F0ECD0400015
:10A86000EAE700BF002C0140001002409CDA050816
:10A87000000000202DE9F04F93B0AB4B0193AB4BA0
:10A88000DFF8CC820024A3F63865A94FDFF89CA23C
:10A89000BB0AA3F58013542B4FF000064CD8EB5C99
:10A8A0000B2B49D818F90390A24B93F8FA35012BDA
:10A8B00040F0F880B9F1010F34D14FF0000B594648
:10A8C000484610F0DBF910F067FA037813B1542B07
:10A8D00040F0F0800BF1040B1FFA8BFBBBF1100F63
:10A8E000EDD1ACB34FF0000C8F4A00210BE0EB5CD4
:10A8F0000B2B0FD818F903304B450ED00131A14274
:10A9000002F1E40221DA906803689B0AA3F5801340
:10A91000542BECD900234B45F0D143799AF805002C
:10A920009842EBD10136082E45D05AF81C7FBB0A5D
:10A93000A3F58013542BB2D97E4B93F8FA35013B23
:10A94000012BEFD94FF00009B7E7BCF1000FE9D1B7
:10A95000DAF80800784B002205E00132102A03F1F2
:10A960000C0300F08F8359688842F6D152B29AF8EE
:10A9700005103846FDF75CFE704A406800235168B8
:10A98000884203F1010300F08A80102B02F12402B7
:10A99000F5D14FF0FF336A4A03EBC30302EB8303A5
:10A9A00093F8B032002BBDD1604BC6EBC60603EB6B
:10A9B0008606019B9E60019B0134E433042C0193C5
:10A9C0007FF463AF5F4F002607F59E795E4BD3F8A7
:10A9D0007036B34260DDD7F80C80B8F1000F5BD061
:10A9E0005A4BB8F804105D68D8F800003A7C019220
:10A9F000B1FA81F300F1384C002D02934FEA9C2C00
:10AA0000C3F11F0A74DD484A002404E00134AC425B
:10AA100002F1E40269D013686345F7D1424AE423A6
:10AA200003FB0424019B3B744FF0030C0136C7F871
:10AA300004A0C7F80C80BC6188F806C088F80760DD
:10AA4000226CA36C4FEA4A050CFA05FC42EA0C02A0
:10AA50002264012202FA05F51D433C4BA5641B78D4
:10AA600073B3E36C02FA0AFA43EA0A03E36481610E
:10AA7000D4F894001FFA8AF1FBF700FB2046FBF79D
:10AA8000D1FA0123082E3B777B7789F8113007F143
:10AA9000200709F1180999D113B0BDE8F08FDBB296
:10AAA000013B78E7022B7FF408AFB9F1080F3FF4C0
:10AAB00004AF37E74FF0010C002C7FF415AF31E7FE
:10AAC000029DC5F12F0C02FA0CFC02FA0AFA1A4692
:10AAD000E36C0D0443EA0C03E3641FFA8AF1856119
:10AAE000D4F89400FBF7CAFAC8E7032C00F3EC8013
:10AAF000164AE42303FB05231869002800F0AC8202
:10AB00005422C3F808C083F8E8200CF1010C0F4A66
:10AB100083F8E9C06B1C5360064B074C93F8113661
:10AB20000493002283681BE0881C0020D4E80508F9
:10AB300000340140703E0020D40100209402002027
:10AB40000000002018200020782D0020801C00200C
:10AB5000E45D06080132102A04F10C0400F0928230
:10AB600061688B42F6D141790068DFF8F4B252B2E5
:10AB7000FDF75EFDAA4BD0E90141E42202FB05325C
:10AB8000C2E90741594600224B689C4202F101028A
:10AB900017D0102A01F12401F6D1A24B93F88C2290
:10ABA000AB46002A00F048829F48A049A04AA14B2A
:10ABB000C0F83816C0F83026C0F8403613B0BDE8EB
:10ABC000F08FD2B2974B013AE42102EBC20203EBC1
:10ABD000820201FB05F392490393194492F8B032C3
:10ABE000B1F8E8000693002BDED1039BA2F8B00277
:10ABF0005A0002EBA302C2EB422202EB8242524213
:10AC00008D4B086902EB420404EB041403EB840C43
:10AC10008C238A4C006803FB02F204EB4202D8F852
:10AC20000040CC60C1E935233322C1F8A020C1F82F
:10AC30009CC0FFF7D7FD039B814AD418049B062BC9
:10AC400000F0F781072B7F4B7F49804A08BF1946E8
:10AC50007F4B18BF1A46B0FBF2F2B0FBF1F170481F
:10AC6000E42303FB0503013A92B20139A3F8A410CF
:10AC7000A3F86C20A2650022A4F85020E26562656A
:10AC80001A690493039B106803F150016C4B19443B
:10AC90004DF076FC049B1A6904921068036843F037
:10ACA0008003036053790C2B13D8DFE813F09A016B
:10ACB0001200120012009301120012001200A101F2
:10ACC0001200120012008B01574A032382F810363B
:10ACD0006AE7534AE42303FB05235969026800230A
:10ACE0004FF0600C0C930F931193CDF828C0012303
:10ACF0004FF4807CCDF840C00B9322F00102022378
:10AD00004FF00A0CCDE90DC302600AAA4DF084FA97
:10AD1000434BE42202FB0532049B52691B680593F6
:10AD2000012A4FF000031DD0042A00F09381102A5D
:10AD300000F09781402A00F09881B2F5807F00F002
:10AD40009281B2F5806F00F09481B2F5805F00F0DF
:10AD50009281B2F5804F00F09081B2F5803F0CBF38
:10AD6000082309233B4A1344059A93F8181F93F8C4
:10AD700024CF18320823885803FA0CF3184388505C
:10AD8000049B1879002840F03F81254BE42202FB08
:10AD9000053200231069D1690068026842F001029F
:10ADA0000260DBF80420914203F1010300F02881E6
:10ADB000102B0BF1240BF4D14FF0FF33194A03EBA6
:10ADC000C30302EB8303D3F89402234B98420CBFD6
:10ADD000A020A1204CF0C8FA204A1149936CDFF85A
:10ADE00084E043F004039364E42303FB051319692F
:10ADF000936CD1F800C003F004030993099B4B79CD
:10AE000007490C2B9BBF134A02EB43030022B3F804
:10AE1000302FE42303FB05131A8300232BE000BF2C
:10AE2000801C002000000020703E0020314E0108F0
:10AE30002D4E0108394E0108C0440020F047002083
:10AE4000881C0020105522004495080040771B0004
:10AE5000D0DD06009CDA0508000002400010024028
:10AE600094020020F03300208C4500F00081013373
:10AE7000042B00F004815EF833100029F4D18349DB
:10AE80000846D1F874160131C0F8741600EBC301FE
:10AE9000DB00C1F878C67344069899880A439A8003
:10AEA0007B4923469022FDF7B5FC7A4AE42303FB55
:10AEB00005254FF0000BE869026842F002020260CB
:10AEC000026842F00A020260C4E91DBB2A6AC4F8A3
:10AED0008C204FF44052C4F8902080231022E36766
:10AEE0002267D5F8A020C4F88820EA686A4BC1B26E
:10AEF00018320839A266A3FB01214FF40072C4F88E
:10AF00008020039A654B68321A444FF4006CD5F8E0
:10AF10009C30E3660909013120F0FF00C4F884C0C9
:10AF20004DF054FC039AE8695C49A0320A44016878
:10AF30002162416861628168A162C168E162C4E91D
:10AF40002ABBC4F8B0B0296AC4F8C4104FF4005C3E
:10AF50008023C4F8B430C4F8C8C0D5F8D830C4F8D9
:10AF6000C030EB681033C4F8A030C1B24A4B083986
:10AF7000A3FB01314FF48073C4F8B830D5F8D43056
:10AF8000C4F8A43009094FF48063013120F0FF00B8
:10AF9000C4F8BC304DF01AFCEB69B8F804101A681C
:10AFA00022635A6862639A68A263DA68E2631A6885
:10AFB000D8F8000042F002021A601A6842F00A0251
:10AFC0001A602FE5334AE42303FB05234FF4805135
:10AFD000596183E62F4AE42303FB052310215961BD
:10AFE0007CE62C4AE42303FB05230121596175E625
:10AFF000284AE42303FB05234FF4807159616DE671
:10B00000DBB20693013BD9E60BF054FE079050B13A
:10B01000049B0221DA79FDF773FC079B5422DA8046
:10B02000049B1B680593059A536C43F400435364D7
:10B03000ABE61B491B4A0EE6164A4FF0E40808FB34
:10B040000B2898F8E92098F8E81083F88C1283F818
:10B050008D22A9E5012385E6134A022382F81036E2
:10B06000A2E502237EE604237CE603237AE6DB00E6
:10B0700011E7052376E6062374E6072372E600232C
:10B080009B88FFDE00235B68FFDE00BF782D002079
:10B09000C5600008801C0020CDCCCCCC881C0020D2
:10B0A000882A1100A0BB0D00703E0020F8B5830A6D
:10B0B000A3F58013542B1AD814460D4AD65C0B2ED8
:10B0C00015D80C4D013905EB861789B2C7F8B412B3
:10B0D000FFF788FBB0FBF4F2013AD7F8A802C7F8F3
:10B0E000AC2207F52B71BDE8F84042F0B5BDF8BDC4
:10B0F0009CDA0508703E00202DE9F843830AA3F589
:10B100008013542B4FD81546434AD75C0B2F4AD88F
:10B11000DFF8149109EB87160446D6F8A83283426B
:10B120004FEA87183FD0013989B2C6F8B412C6F881
:10B13000A802FFF757FBB0FBF5F2013AC6F8AC22C4
:10B1400096F8E5220023C6F8B832C6F8B032C6F841
:10B15000BC3202F0FF03002A58D0304909EB080541
:10B1600001EB87110226D5F8A80285F8E5620431C3
:10B1700042F072FD2A4B01229C4285F8E52214D050
:10B18000B4F1804F11D0A3F594339C420DD003F558
:10B1900080639C4209D003F580639C4205D003F58F
:10B1A00094339C4201D0BDE8F88395F8E432012B3A
:10B1B000F9D0D5F8A83285F8E562986819490140B8
:10B1C0009960174885F8E52209EB0802022182F808
:10B1D000E51283425A6899681BD000F500608342EB
:10B1E00017D000F5E050834213D022F00072C8441B
:10B1F00022F0700221F080015A6001209960002342
:10B2000088F8E50288F8E432BDE8F88386F8E4328D
:10B21000A3E722F47002E8E79CDA05081841002051
:10B22000002C01408800CEFF703E00202DE9F04F39
:10B230000C460646206885B0850AA5F58015BDF840
:10B2400038109DF83C900191542D58D8DFF80083B8
:10B2500018F805500B2D52D81946FFF74DFF2068FE
:10B260006179B9F1000F4DD1830A94F80690A3F5E6
:10B270008013542BCE464ED9B24B1EF0020F00F075
:10B28000E48003EB851201F01F07D2F8A822042105
:10B29000B940176A27EA01071762176A3943AD01F7
:10B2A0001162516C41F4004151649768A6493940DC
:10B2B000062906D0B1F5803F03D0116841F00101A5
:10B2C00011605A19022182F8E512D2F8A8129E4A9A
:10B2D0008F683A40062A06D0B2F5803F03D00A684C
:10B2E00042F001020A601D44012385F8E5326379CA
:10B2F000706000F13402D11831600021D15005B0E6
:10B30000BDE8F08F830A94F806E0A3F58013542B70
:10B310008EF00109B0D818F803208A4B0B2AACD85C
:10B3200003EB82184FEA490C4FEAC90909F00807F4
:10B3300098F8E4920297B9F1010F0CF0020C4FEA71
:10B3400082129AD04FF0010988F8E4924FF0020976
:10B3500088F8E59214296CD8DFE811F0A3016B009E
:10B360006B006B0015006B006B006B00FA016B004B
:10B370006B006B004C016B006B006B00FE006B0000
:10B380006B006B00A60003EB0208DFF8C0A1D8F841
:10B39000A882D8F8209029F01009C8F82090D8F891
:10B3A0002090D8F804B029F0200949EA0C1CD8F8FC
:10B3B000189029F0807929F4E649D04549F4C0492C
:10B3C00000F016820AF5006AD04500F011820AF5F5
:10B3D000E05AD04500F03A82DFF878A1D04500F07D
:10B3E0000E820AF5806AD04500F009820AF5806A6B
:10B3F000D04500F004820AF5006AD04500F0FF81D4
:10B40000019FC8F804B0C8F81890C8F83870C8F898
:10B4100020C0D8F8187047F40067C8F81870D8F83A
:10B42000187027F48067C8F81870D8F81870C8F832
:10B4300018701A44012782F8E5721EF0020F4FF0CF
:10B44000000782F8E4727FF41CAF03EB851201F071
:10B450001F07D2F8A8220121B940176A27EA01077D
:10B460001762176A3943116238498A424FEA8515D3
:10B470003FF417AF01F500618A423FF412AF01F5C6
:10B4800040618A423FF40DAF01F580618A423FF48A
:10B4900008AF01F580618A423FF403AF01F5006116
:10B4A0008A427FF402AFFCE603EB0208DFF89CA0BF
:10B4B000D8F8A882D8F8209029F48019C8F82090EC
:10B4C000D8F82090D8F804B029F4001949EA0C5CA7
:10B4D000D8F8509029F0807929F4E049D04549F412
:10B4E000C04913D00AF5006AD0450FD00AF5406A6A
:10B4F000D0450BD00AF5806AD04507D00AF5806A9E
:10B50000D04503D00AF5006AD04501D14BF4802B19
:10B51000019FC8F804B0C8F85090C8F84C70C8F83B
:10B5200020C0D8F8507047F40067C8F85070D8F8B9
:10B53000507027F48067C8F85070D8F85070C8F879
:10B54000507076E7703E002007000100002C01409B
:10B550009CDA05080040014003EB0208DFF8FCA27A
:10B56000D8F8A882D8F8209029F48039C8F820901B
:10B57000D8F82090D8F804B029F4003949EA0C4CE6
:10B58000D8F8509029F4803929F07009D04549F055
:10B59000600913D00AF5006AD0450FD00AF5406A59
:10B5A000D0450BD00AF5806AD04507D00AF5806AED
:10B5B000D04503D00AF5006AD04501D14BF4803B59
:10B5C000019FC8F804B0C8F85090C8F84870C8F88F
:10B5D00020C0D8F8507047F00807C8F85070D8F865
:10B5E000507027F00407C8F85070D8F85070C8F8A9
:10B5F00050701EE703EB0208DFF860A2D8F8A882BB
:10B60000D8F8209029F48059C8F82090D8F82090D4
:10B61000D8F804B029F4005949EA0C3CD8F81C9039
:10B6200029F0807929F4E649D04549F4C04900F071
:10B63000F3800AF5006AD04500F0EE800AF5E05A82
:10B64000D04500F0F380DFF818A2D04500F0EB8081
:10B650000AF5806AD04500F0E6800AF5806AD04598
:10B6600000F0E1800AF5006AD04500F0DC80019F1F
:10B67000C8F804B0C8F81C90C8F84070C8F820C0DA
:10B68000D8F81C7047F40067C8F81C70D8F81C7014
:10B6900027F48067C8F81C70D8F81C70C8F81C70B4
:10B6A000C7E603EB0208DFF8B491D8F8A882D8F80F
:10B6B00020A02AF0010AC8F820A0D8F820B0D8F8B5
:10B6C00004A02BF0020B4CEA0B0BD8F818C02CF49A
:10B6D000803C2CF0730C4CF06007C845039713D0E6
:10B6E000DFF880C1E0450FD00CF5406CE0450BD091
:10B6F0000CF5806CE04507D00CF5806CE04503D07C
:10B700000CF5006CE04508D1029F2BF0080C47EACD
:10B710000C0C2CF0040B4AF4407A039FC8F804A0E8
:10B72000C8F81870019FC8F83470C8F820B0D8F86D
:10B73000187047F00807C8F81870D8F8187027F084
:10B740000407C8F81870D8F81870C8F8187070E6B0
:10B7500003EB0208DFF804A1D8F8A882D8F82090FB
:10B7600029F48079C8F82090D8F82090D8F804B04F
:10B7700029F4007949EA0C2CD8F81C9029F4803976
:10B7800029F07309D04549F060093BD00AF5006AF9
:10B79000D04537D00AF5E05AD0454FD0DFF8C0A0E9
:10B7A000D04536D00AF5806AD04532D00AF5806A95
:10B7B000D0452ED00AF5006AD0452AD0019FC8F89E
:10B7C00004B0C8F81C90C8F83C70C8F820C0D8F87D
:10B7D0001C7047F00807C8F81C70D8F81C7027F0D8
:10B7E0000407C8F81C70D8F81C70C8F81C7020E654
:10B7F000029F2CF0800C4CEA071C2CF0400C4BF400
:10B80000406BFDE5029F2CF4006C4CEA072C2CF4F5
:10B81000806C4BF4405BD1E7029F2CF4004C4CEA67
:10B82000073C2CF4804C4BF4404B20E7029F2CF457
:10B83000004C4CEA073C2CF4804C04E7029F2CF4AB
:10B84000006C4CEA072C2CF4806CA7E7029F2CF0CC
:10B85000800C4CEA071C2CF0400CBDE5002C01408C
:10B86000004001400034014070B504460068830A7E
:10B87000A3F58013542B03D82D4EF55C0B2D00D966
:10B8800070BDFFF739FC2B4BA80103EB8515022295
:10B89000D5F8A81285F8E5228D68274A2A40062A9D
:10B8A00006D0B2F5803F03D00A6842F001020A6078
:10B8B000034401202168214A83F8E502204800233F
:10B8C00001E050F8332091420AD001330C2BF8D11B
:10B8D000012100204BF000FC1A4B01221A6070BDC0
:10B8E00006EBC303012193F9DD4D93F8DD6D20468E
